{
  "_format": "hh-sol-artifact-1",
  "contractName": "Cresento",
  "sourceName": "contracts/Cresento.sol",
  "abi": [
    {
      "inputs": [],
      "stateMutability": "nonpayable",
      "type": "constructor"
    },
    {
      "anonymous": false,
      "inputs": [
        {
          "indexed": true,
          "internalType": "string",
          "name": "username",
          "type": "string"
        },
        {
          "indexed": true,
          "internalType": "string",
          "name": "receiver",
          "type": "string"
        },
        {
          "indexed": false,
          "internalType": "uint64",
          "name": "amount",
          "type": "uint64"
        }
      ],
      "name": "Transfer",
      "type": "event"
    },
    {
      "inputs": [
        {
          "internalType": "string",
          "name": "user1",
          "type": "string"
        },
        {
          "internalType": "string",
          "name": "user2",
          "type": "string"
        }
      ],
      "name": "addTxnPairs",
      "outputs": [],
      "stateMutability": "nonpayable",
      "type": "function"
    },
    {
      "inputs": [
        {
          "internalType": "string",
          "name": "un",
          "type": "string"
        },
        {
          "internalType": "string",
          "name": "rec",
          "type": "string"
        },
        {
          "internalType": "uint64",
          "name": "amt",
          "type": "uint64"
        },
        {
          "internalType": "string",
          "name": "authorizedUser",
          "type": "string"
        }
      ],
      "name": "transfer",
      "outputs": [],
      "stateMutability": "nonpayable",
      "type": "function"
    }
  ],
  "bytecode": "0x608060405234801561001057600080fd5b506107a8806100206000396000f3fe608060405234801561001057600080fd5b50600436106100365760003560e01c8063781c85581461003b578063c74e09c614610057575b600080fd5b6100556004803603810190610050919061042d565b610073565b005b610071600480360381019061006c91906104e8565b6101e9565b005b60008460405161008391906105d1565b90815260200160405180910390208160405161009f91906105d1565b908152602001604051809103902060009054906101000a900460ff166100fa576040517f08c379a00000000000000000000000000000000000000000000000000000000081526004016100f190610645565b60405180910390fd5b8167ffffffffffffffff1660018560405161011591906105d1565b9081526020016040518091039020541015610165576040517f08c379a000000000000000000000000000000000000000000000000000000000815260040161015c906106b1565b60405180910390fd5b8167ffffffffffffffff1660018560405161018091906105d1565b9081526020016040518091039020600082825461019d919061070a565b925050819055508167ffffffffffffffff166001846040516101bf91906105d1565b908152602001604051809103902060008282546101dc919061073e565b9250508190555050505050565b60016000836040516101fb91906105d1565b90815260200160405180910390208260405161021791906105d1565b908152602001604051809103902060006101000a81548160ff021916908315150217905550600160008260405161024e91906105d1565b90815260200160405180910390208360405161026a91906105d1565b908152602001604051809103902060006101000a81548160ff0219169083151502179055505050565b6000604051905090565b600080fd5b600080fd5b600080fd5b600080fd5b6000601f19601f8301169050919050565b7f4e487b7100000000000000000000000000000000000000000000000000000000600052604160045260246000fd5b6102fa826102b1565b810181811067ffffffffffffffff82111715610319576103186102c2565b5b80604052505050565b600061032c610293565b905061033882826102f1565b919050565b600067ffffffffffffffff821115610358576103576102c2565b5b610361826102b1565b9050602081019050919050565b82818337600083830152505050565b600061039061038b8461033d565b610322565b9050828152602081018484840111156103ac576103ab6102ac565b5b6103b784828561036e565b509392505050565b600082601f8301126103d4576103d36102a7565b5b81356103e484826020860161037d565b91505092915050565b600067ffffffffffffffff82169050919050565b61040a816103ed565b811461041557600080fd5b50565b60008135905061042781610401565b92915050565b600080600080608085870312156104475761044661029d565b5b600085013567ffffffffffffffff811115610465576104646102a2565b5b610471878288016103bf565b945050602085013567ffffffffffffffff811115610492576104916102a2565b5b61049e878288016103bf565b93505060406104af87828801610418565b925050606085013567ffffffffffffffff8111156104d0576104cf6102a2565b5b6104dc878288016103bf565b91505092959194509250565b600080604083850312156104ff576104fe61029d565b5b600083013567ffffffffffffffff81111561051d5761051c6102a2565b5b610529858286016103bf565b925050602083013567ffffffffffffffff81111561054a576105496102a2565b5b610556858286016103bf565b9150509250929050565b600081519050919050565b600081905092915050565b60005b83811015610594578082015181840152602081019050610579565b60008484015250505050565b60006105ab82610560565b6105b5818561056b565b93506105c5818560208601610576565b80840191505092915050565b60006105dd82846105a0565b915081905092915050565b600082825260208201905092915050565b7f556e617574686f72697a6564205472616e736665720000000000000000000000600082015250565b600061062f6015836105e8565b915061063a826105f9565b602082019050919050565b6000602082019050818103600083015261065e81610622565b9050919050565b7f496e73756666656369656e742042616c616e6365000000000000000000000000600082015250565b600061069b6014836105e8565b91506106a682610665565b602082019050919050565b600060208201905081810360008301526106ca8161068e565b9050919050565b6000819050919050565b7f4e487b7100000000000000000000000000000000000000000000000000000000600052601160045260246000fd5b6000610715826106d1565b9150610720836106d1565b9250828203905081811115610738576107376106db565b5b92915050565b6000610749826106d1565b9150610754836106d1565b925082820190508082111561076c5761076b6106db565b5b9291505056fea26469706673582212208a81cdd1580fc477c0bbca7a5de813110cb47d16588249fc2065d5829a4b4cf864736f6c63430008140033",
  "linkReferences": {},
  "deployedLinkReferences": {}
}